{
  "contractName": "SoftwareLicense",
  "abi": [
    {
      "inputs": [
        {
          "internalType": "uint256",
          "name": "_licensePrice",
          "type": "uint256"
        },
        {
          "internalType": "string",
          "name": "_licenseSeed",
          "type": "string"
        }
      ],
      "stateMutability": "nonpayable",
      "type": "constructor"
    },
    {
      "anonymous": false,
      "inputs": [
        {
          "indexed": true,
          "internalType": "address",
          "name": "buyer",
          "type": "address"
        },
        {
          "indexed": false,
          "internalType": "uint256",
          "name": "timestamp",
          "type": "uint256"
        }
      ],
      "name": "LicensePurchased",
      "type": "event"
    },
    {
      "inputs": [
        {
          "internalType": "address",
          "name": "",
          "type": "address"
        }
      ],
      "name": "hasLicense",
      "outputs": [
        {
          "internalType": "bool",
          "name": "",
          "type": "bool"
        }
      ],
      "stateMutability": "view",
      "type": "function",
      "constant": true
    },
    {
      "inputs": [],
      "name": "licensePrice",
      "outputs": [
        {
          "internalType": "uint256",
          "name": "",
          "type": "uint256"
        }
      ],
      "stateMutability": "view",
      "type": "function",
      "constant": true
    },
    {
      "inputs": [],
      "name": "owner",
      "outputs": [
        {
          "internalType": "address",
          "name": "",
          "type": "address"
        }
      ],
      "stateMutability": "view",
      "type": "function",
      "constant": true
    },
    {
      "inputs": [],
      "name": "purchaseLicense",
      "outputs": [],
      "stateMutability": "payable",
      "type": "function",
      "payable": true
    },
    {
      "inputs": [],
      "name": "printSoftwareKey",
      "outputs": [
        {
          "internalType": "bytes32",
          "name": "",
          "type": "bytes32"
        }
      ],
      "stateMutability": "view",
      "type": "function",
      "constant": true
    }
  ],
  "bytecode": "0x608060405234801561001057600080fd5b506040516106e73803806106e783398101604081905261002f91610106565b600080546001600160a01b03191633179055600182905560036100528282610248565b50600260036040516020016100679190610307565b60408051601f19818403018152908290526100819161037d565b602060405180830381855afa15801561009e573d6000803e3d6000fd5b5050506040513d601f19601f820116820180604052508101906100c19190610399565b600255506103b29050565b634e487b7160e01b600052604160045260246000fd5b60005b838110156100fd5781810151838201526020016100e5565b50506000910152565b6000806040838503121561011957600080fd5b825160208401519092506001600160401b038082111561013857600080fd5b818501915085601f83011261014c57600080fd5b81518181111561015e5761015e6100cc565b604051601f8201601f19908116603f01168101908382118183101715610186576101866100cc565b8160405282815288602084870101111561019f57600080fd5b6101b08360208301602088016100e2565b80955050505050509250929050565b600181811c908216806101d357607f821691505b6020821081036101f357634e487b7160e01b600052602260045260246000fd5b50919050565b601f82111561024357600081815260208120601f850160051c810160208610156102205750805b601f850160051c820191505b8181101561023f5782815560010161022c565b5050505b505050565b81516001600160401b03811115610261576102616100cc565b6102758161026f84546101bf565b846101f9565b602080601f8311600181146102aa57600084156102925750858301515b600019600386901b1c1916600185901b17855561023f565b600085815260208120601f198616915b828110156102d9578886015182559484019460019091019084016102ba565b50858210156102f75787850151600019600388901b60f8161c191681555b5050505050600190811b01905550565b6000808354610315816101bf565b6001828116801561032d576001811461034257610371565b60ff1984168752821515830287019450610371565b8760005260208060002060005b858110156103685781548a82015290840190820161034f565b50505082870194505b50929695505050505050565b6000825161038f8184602087016100e2565b9190910192915050565b6000602082840312156103ab57600080fd5b5051919050565b610326806103c16000396000f3fe60806040526004361061004a5760003560e01c806340010a7e1461004f57806356afb487146100785780636bc8ecb5146100b85780638da5cb5b146100c2578063a7222662146100fa575b600080fd5b34801561005b57600080fd5b5061006560015481565b6040519081526020015b60405180910390f35b34801561008457600080fd5b506100a86100933660046102c0565b60046020526000908152604090205460ff1681565b604051901515815260200161006f565b6100c061010f565b005b3480156100ce57600080fd5b506000546100e2906001600160a01b031681565b6040516001600160a01b03909116815260200161006f565b34801561010657600080fd5b5061006561024e565b3360009081526004602052604090205460ff16156101745760405162461bcd60e51b815260206004820152601a60248201527f596f7520616c726561647920686176652061206c6963656e736500000000000060448201526064015b60405180910390fd5b60015434146101bd5760405162461bcd60e51b8152602060048201526015602482015274125b98dbdc9c9958dd08185b5bdd5b9d081cd95b9d605a1b604482015260640161016b565b600080546040516001600160a01b03909116913480156108fc02929091818181858888f193505050501580156101f7573d6000803e3d6000fd5b503360008181526004602052604090819020805460ff19166001179055517f1e6262773b0ac3e2d621fbf8856e4e68ec8e4d2ed0d5bda930fedb5c832789d2906102449042815260200190565b60405180910390a2565b3360009081526004602052604081205460ff166102b95760405162461bcd60e51b8152602060048201526024808201527f596f75206e65656420746f2070757263686173652061206c6963656e736520666044820152631a5c9cdd60e21b606482015260840161016b565b5060025490565b6000602082840312156102d257600080fd5b81356001600160a01b03811681146102e957600080fd5b939250505056fea26469706673582212208dff8bc4d2ee6179f02413007b2db18d7a8ff2bc32cead8ccd7b18491da8f37a64736f6c63430008110033",
  "immutableReferences": {},
  "source": "// SPDX-License-Identifier: MIT\npragma solidity ^0.8.0;\n\ncontract SoftwareLicense {\n\n    address public owner;\n    uint256 public licensePrice;\n    bytes32 private hash;\n    string private licenseSeed;\n    mapping(address => bool) public hasLicense;\n\n    event LicensePurchased(address indexed buyer, uint256 timestamp);\n\n    modifier hasNotPurchasedLicense() {\n        require(!hasLicense[msg.sender], \"You already have a license\");\n        _;\n    }\n\n    modifier hasPurchasedLicense() {\n        require(hasLicense[msg.sender], \"You need to purchase a license first\");\n        _;\n    }\n\n    constructor(uint256 _licensePrice, string memory _licenseSeed) {\n        owner = msg.sender;\n        licensePrice = _licensePrice;\n        licenseSeed = _licenseSeed;\n        hash = sha256(abi.encodePacked(licenseSeed));\n    }\n\n    function purchaseLicense() external payable hasNotPurchasedLicense {\n        require(msg.value == licensePrice, \"Incorrect amount sent\");\n\n        // Transfer funds to the owner\n        payable(owner).transfer(msg.value);\n\n        // Grant license to the buyer\n        hasLicense[msg.sender] = true;\n\n        // Emit an event\n        emit LicensePurchased(msg.sender, block.timestamp);\n    }\n\n    function printSoftwareKey() external view hasPurchasedLicense returns (bytes32) {\n        // Esta funo pode ser chamada apenas por usurios que compraram uma licena\n        // Retorna a chave de software gerada por meio de criptografia no construtor\n        return hash;\n    }\n}\n",
  "sourcePath": "/home/gabriel/Downloads/TrabBlockchain/contracts/trabalho.sol",
  "compiler": {
    "name": "solc",
    "version": "0.8.17+commit.8df45f5f.Emscripten.clang"
  },
  "schemaVersion": "3.4.10",
  "updatedAt": "2023-11-27T09:14:53.447Z",
  "networkType": "ethereum",
  "devdoc": {
    "kind": "dev",
    "methods": {},
    "version": 1
  },
  "userdoc": {
    "kind": "user",
    "methods": {},
    "version": 1
  }
}